05002000Frank C Videon Inc                                                  Y19541124        4951 W Chester Pike                                                 Newtown Square                045PA190732214USA+03997490-07544660       6103567000          6103250180   https://www.videon.com                                                                              .                                                                                                                                                                                                                                                                                                                                            .
05037000Tubbs Brothers Inc                                                  Y19541026        959 W Sanilac                                                       Sandusky                      151MI484719789USA+04342050-08286700       8106482848          8106484224   https://www.tubbsbrothers.net                                                                                                                                                       You'll Feel Good About Doing  Business With Us              1      8006472848                                                                                                                                                                                .
05239000McClane Motor Sales Inc                                             Y19531113        702 E Jourdan St                                                    Newton                        079IL624481549USA+03899100-08815070       6187832372          6187832335   https://www.mcclanemotor.com                                                                                                                                                                                                                                                                                                                                                                                                                     .
05475000Sternberg Chrysler Center Inc                                       Y19520901        1781 Highway 231                                                    Jasper                        037IN475468123USA+03836890-08694190       8124825125          8124825198   https://www.sternbergchryslercenter.com                                                                                                                                             Working Hard To Be The Best                                 1      8004829006                                                                                                                                                                                .
05504000Rouse Motor Company Inc                                             Y19520601        320 G Ave                                                           Grundy Center                 075IA506381845USA+04236150-09276810       3198246004                       https://www.rousemotor.com                                                                                                                                                                                                                                                                                                                                                                                                                       .
05551000Pine Belt Cdjr                                                      Y19520315        6905 U S Highway 98                                                 Hattiesburg                   073MS394028448USA+03131500-08945000       6015442430          0000000000                                                                                                                                                                                       BEST DEALS PERIOD                                           1      8008981000                                                                                                                                                                                .
05551001                                                                    N1952031520230207601 Scooba St                                                       Hattiesburg                   035MS394016321USA+03131570-08930720                                        https://www.pinebeltcdjr.com                                                                                                                                                                                                                                                                                                                                                                                                                     .
06018000Kamaaina Motors                                                     Y19360515        400 East Kawili Street                                              Hilo                          001HI967205045USA+01970580-15506490       8089353741                       https://www.kamaainamotors.com                                                                                                                                                                                                                                                                                                                                                                                                                   .
06139000                                                                    Y19490915        711 Fort St                                                         Miles City                    017MT593013218USA+04640500-10584800       4062342980          0000000000   https://www.deluxemotorsinc.com                                                                                                                                                                                                                                                                                                                                                                                                                  .
06139001Deluxe Motors Inc.                                                  Y19490915        2610 Main St.                                                       Miles City                    017MT593013959USA+04640840-10582680                                        https://www.deluxemotorsinc.com                                                                     RAM TRUCK CENTER                                                                                                                                                                                                                                                                                                                             .
06139002Deluxe Motors Inc.                                                  Y20230728        710 Pacific Ave.                                                    Miles City                    017MT593013224USA+04640470-10584750                                                                                                                                            NEW VEHICLE DISPLAY/STORAGE LOT                                                                                                                                                                                                                                                                                                              .
07203000West Motor Company Inc                                              Y19441221        296 North State Street                                              Preston                       041ID832631168USA+04210210-11187660       2088521337          2088522439   https://www.westmotor.net                                                                                                                                                           We Make It Easy                                             1      8004011337                                                                                                                                                                                .
07375000Torkelson Motors Inc                                                Y19260922        216 Center Street                                                   Elgin                         065IA521419334USA+04295740-09162930       5634265505          5634265769   https://www.torkelsonmotors.net                                                                                                                                                     Outstanding Customer Service                                1      8007790035                                                                                                                                                                                .
07783000Kuntz Motor Company                                                 Y19340115        4732 Colonel Drake Highway                                          Mahaffey                      033PA157577300USA+04087790-07873920       8142776682          8142776347   https://www.kuntzmotor.com                                                                                                                                                                                                                                                                                                                                                                                                                       .
07969000Maddox Motor Company                                                Y19450630        564 Glover Road                                                     Sidney                        033NE691623051USA+04111720-10295610       3082545577          3082542852                                                                                                                                                                                       One Of Chrysler's Five Best                                 1      8004374811                                                                                                                                                                                .
08011000Larry H. Miller Chrysler Jeep Dodge Ram Sandy                       Y19390801        10905 S Auto Mall Drive                                             Sandy                         035UT840704162USA+04055250-11189460       8015535900          8015535908   https://www.lhmchryslerjeep.com                                                                                                                                                     Serving Customers For Life                                  1      8666672319                                                                                                                                                                                .
08299000                                                                    Y19380915        3111 W Lincoln Hwy                                                  Merrillville                  089IN464105148USA+04147100-08737550       2197382323          2197694812   https://www.bosakmotor.com                                                                                                                                                                                                                      1      8884522323                                                                                                                                                                                .
08331000Erwin Chry-Dodge-Jeep Inc                                           Y19440424        2775 S County Road 25a                                              Troy                          109OH453738853USA+03999890-08420050       9373355696          9373391828   https://www.erwinchryslerdodgejeep.com                                                                                                                                                                                                                                                                                                                                                                                                           .
08397000Dick Poe Chrysler Jeep                                              Y19280319        6501 Montana Ave                                                    El Paso                       141TX799252128USA+03178910-10640120       9157789331          9157830636   https://www.dickpoechryslerjeep.net                                                                                                                                                                                                                                                                                                                                                                                                              .
08564000Normandin Chrysler Dodge Jeep Ram FIAT                              Y19330630        900 Capitol Expressway Auto Mall                                    San Jose                      085CA951361102USA+03727750-12186930       4082669500          4082661185   https://www.normandinchryslerjeep.net                                                                                                                                               Great Service!                Well trained technicians.     1      8004685337                                                                                                                                                                                .
08585000Marshall Motor Co Inc                                               Y19370707        3500 South 9th                                                      Salina                        169KS674017882USA+03877460-09761350       7858279641          7858256896   https://www.marshallmotor.net                                                                                                                                                       We Keep Life Moving!                                        1      8003950455                                                                                                                                                                                .
08625000Bill Luke Chrysler-Jeep&Dodge                                       Y19350930        2425 West Camelback Road                                            Phoenix                       013AZ850153420USA+03350950-11211130       6022491234          6022425075   https://www.billluke.com                                                                                                                                                                                                                                                                                                                                                                                                                         .
08625001                                                                    Y19350930        2331 W Camelback Rd                                                 Phoenix                       013AZ850153418USA+03350950-11210850                                        https://www.billluke.com                                                                                                                                                                                                                                                                                                                                                                                                                         .
08704000Corwin Chrysler Dodge Jeep Ram                                      Y19370630        301 38th St S                                                       Fargo                         017ND581031112USA+04689310-09684090       7012825600          7012827543   https://www.corwinchryslerdodge.com                                                                                                                                                 Your Total Satisfaction                                     1      8005725600                                                                                                                                                                                .
08735000Fuqua Chry-Ply Inc                                                  N1957070920230214127 East Commerce Street                                            Dunkirk                       075IN473361343USA+04037390-08520960       7657686224          7657686700                                                                                                                                                                                       Big City Choices              Small Town Prices             1      8776821194   1      7657686700                                                                                                                                                            .
08767000Capitol Garage Inc                                                  Y19441021        1520 Main St                                                        Willimantic                   015CT062261915USA+04171860-07223530       8604234516          8604562872   https://www.capitolcdj.com                                                                                                                                                                                                                                                                                                                                                                                                                       .
08767001                                                                    Y20200601        1520 W. Main Street                                                 Willimantic                   015CT062261915USA+04171860-07223530                                        https://www.capitolcdj.com                                                                          60' X 40' STEEL OUTBUILDING WITH OVERHEAD DOOR                                                                                                                                                                                                                                                                                               .
08911000Brown-Daub Chrysler Jeep Dodge Ram FIAT                             Y19360601        3903 Hecktown Rd                                                    Easton                        095PA180452351USA+04069640-07529310       6102533521          6102532019   https://www.browndaub.net                                                                                                                                                           Reputation Is Everything                                    1      8009605337   1      6102580128                                                                                                                                                            .
09529000Wittrock Motor Company                                              Y19400630        1019 W US Highway 30                                                Carroll                       027IA514012174USA+04206790-09488570       7127929234          7127924434   https://www.wittrockmotor.com                                                                                                                                                       Above the Rest!                                             1      8007929234                                                                                                                                                                                .
09733000Central Chrysler Jeep Dodge                                         Y19520124        56 Providence Hwy                                                   Norwood                       021MA020622622USA+04221180-07118310       7817622200          7817696865   https://www.centralchryslerjeepdodge.net                                                                                                                                            OVER SEVENTY YEARS OF         SERVING NEW ENGLAND           1      8002870666                                                                                                                                                                                .
09825000Gray Chrysler Dodge Jeep Ram                                        Y19591015        894 N Ninth St                                                      Stroudsburg                   089PA183601206USA+04098960-07521220       5705175600          5705175610   https://www.graychryslerdodgejeepram.com                                                                                                                                            Now Open Saturdays!                                         1      8006951371                                                                                                                                                                                .
09825001                                                                    Y19591015        1875 W. Main Street                                                 Stroudsburg                   089PA183601054USA+04098260-07522110       5705175600          5705175610   https://www.graychryslerdodgejeepram.com                                                                                                                                                                                                                                                                                                                                                                                                         .
09861000Griffin Motors Company                                              Y19590520        11031 Perry Highway                                                 Meadville                     039PA163356576USA+04161760-08020110       8143362161          8143370199   https://www.griffinmotors.net                                                                                                                                                                                                                                                                                                                                                                                                                    .
09880000Bill Snethkamp Inc                                                  Y19571021        16400 Woodward Ave                                                  Highland Park                 163MI482032818USA+04241650-08310440       3138683300          3138688454   https://www.billsnethkamp.net                                                                                                                                                       Metro Detroit's Original                                    1      3138683300                                                                                                                                                                                .
23011000                                                                    N1975060920230214817 Worcester St                                                    Natick                        017MA017602099USA+04230050-07135600       5086554200          5086556082                                                                                                                                                                                       Your Quality Chrysler Jeep    Dealer                        1      8008348051                                                                                                                                                                                .
23043000Bolles Motors Inc                                                   Y19840612        84 West Rd                                                          Ellington                     013CT060293722USA+04187870-07246400       8608752595          8608753038   https://www.bollesmotors.com                                                                                                                                                                                                                                                                                                                                                                                                                     .
23050000Lahti's Inc                                                         Y19541103        223 Central St                                                      Leominster                    027MA014536113USA+04251850-07175840       9785376466                       https://www.lahtis.net                                                                                                                                                                                                                                                                                                                                                                                                                           .
23058000Milford Chrysler Jeep Dodge Ram                                     Y19660420        1470 Boston Post Rd                                                 Milford                       009CT064602773USA+04123590-07303970       2038782471          2038782583   https://www.milfordjeepconnecticut.com                                                                                                                                                                                                                                                                                                                                                                                                           .
23066000Wetmore's Inc                                                       Y19631018        333 Danbury Rd                                                      New Milford                   005CT067764315USA+04153460-07342330       8603543963          8603533963   https://www.wetmoresonline.com                                                                                                                                                                                                                                                                                                                                                                                                                   .
23069000Falvey's Motors Inc                                                 Y19840814        395 West Thames St Rt#32                                            Norwich                       011CT063606751USA+04150680-07208770       8608893371                       https://www.falveys.com                                                                                                                                                                                                                                                                                                                                                                                                                          .
23077000Bournival Inc                                                       Y19720118        2355 Lafayette Rd                                                   Portsmouth                    015NH038015667USA+04303430-07078110       6034318900                       https://www.bournivaljeep.net                                                                                                                                                       'Live the Dream, Drive a Jeep'                              1      8005484018                                                                                                                                                                                .
23087000Guzik Motor Sales Inc                                               Y19620924        95 East Street                                                      Ware                          015MA010821555USA+04226020-07222890       4139674210                       https://www.guzikmotor.com                                                                                                                                                                                                                                                                                                                                                                                                                       .
23107000Sea View Auto Corporation                                           Y19830505        810 Highway 35                                                      Wanamassa                     025NJ077124564USA+04023260-07403860       7327746500          7327749333   https://www.seaviewauto.net                                                                                                                                                                                                                     1      8008639533                                                                                                                                                                                .
23113000Team Welsh Jeep-Chry-Plym                                           Y19550721        36 Dumont Road                                                      Far Hills                     035NJ079312822USA+04069770-07463040       9082340109          9082340722   https://www.teamwelshjeepchrysler.com                                                                                                                                                                                                                                                                                                                                                                                                            .
23122000Salerno Duane, Inc.                                                 Y19861114        267 Broad St                                                        Summit                        039NJ079013500USA+04071510-07435440       9082776700                       https://www.salernoduanesummit.com                                                                                                                                                                                                                                                                                                                                                                                                               .
23132000L. T. Begnal Motor Co, Inc.                                         N1972092920230418129 Route 28                                                        Kingston                      111NY124017447USA+04194690-07403180       8453315080          8453311916                                                                                                                                                                                       The Dealer You Can Trust                                    1      8005065337                                                                                                                                                                                .
23153000                                                                    Y19570313        100 Jericho Tpke                                                    Jericho                       059NY117531004USA+04078080-07355900       5169973900          5163332728   https://www.westburyjeep.com                                                                                                                                                                                                                                                                                                                                                                                                                     .
23153001                                                                    Y19570313        111 Bond Street                                                     Westbury                      059NY115905015USA+04075870-07355800       5163332666          5163332728   https://www.westburyjeep.com                                                                                                                                                                                                                                                                                                                                                                                                                     .
23153002                                                                    Y19570313        800 S Broadway                                                      Hicksville                    059NY118015017USA+04075120-07350510                                        https://www.westburyjeep.com                                                                                                                                                                                                                                                                                                                                                                                                                     .
23153003                                                                    Y19570313        59 15th St                                                          Brooklyn                      061NY112154609USA+04066860-07399550                                        https://www.westburyjeep.com                                                                                                                                                                                                                                                                                                                                                                                                                     .
23153004Attn: Otr Manager/Dy05                                              Y20200220        7120 Main Street                                                    Trumbull                      001CT066116315USA+04129400-07324470                                                                                                                                            AMAZON PILOT - CURRENT STATION:DYO5                                                                                                                                                                                                                                                                                                          .
23153005Attn: Otr Manager/Dla3                                              Y20200220        329 Durfee Ave                                                      South El Monte                037CA917334305USA+03402970-11805840                                                                                                                                            AMAZON SERVICE CENTER FOR GSA COLLISION                                                                                                                                                                                                                                                                                                      .
23153006Rush Truck Denver                                                   Y20200409        6955e. 50th Ave                                                     Commerce City                 001CO800224711USA+03978750-10490910       8303025684                                                                                                                           RUSH TRUCK CENTER - NEW AMAZON CENTER IN COLORADO                                                                                                                                                                                                                                                                                            .
23153007Attn: Otr Manager/Dsr6                                              Y20200522        2400 McClellan Park Drive                                           McClellan                     065CA956522318USA+00000000+00000000                                                                                                                                            AMAZON PILOT - CURRENT STATION:DSR6                                                                                                                                                                                                                                                                                                          .
23153008Attn: Otr Manager/Dyy6                                              Y20200522        566 Gulf Avenue                                                     Staten Island                 085NY103147120USA+04060990-07418990                                                                                                                                            AMAZON PILOT - CURRENT STATION:DYY6                                                                                                                                                                                                                                                                                                          .
23153009Fix Auto of Skokie                                                  Y20200612        8015 N Lawndale Ave.                                                Skokie                        031IL600763435USA+00000000+00000000                                                                                                                                            AMAZON PILOT - LOCATION, FIX AUTO                                                                                                                                                                                                                                                                                                            .
23153010                                                                    Y20200715        299 Duffy Ave                                                       Hicksville                    059NY118013653USA+04079320-07354340                                                                                                                                            THIS LOCATION IS FOR ADDITIONAL SERVICE CAPACITY.                                                                                                                                                                                                                                                                                            .
23153011Attn: Otr Manager/Das8                                              Y20200727        110 Fordham Road                                                    Wilmington                    017MA018872165USA+04256260-07113830                                                                                                                                            AMAZON DSP CURRENT STATION: DAS8                                                                                                                                                                                                                                                                                                             .
23153012Attn: Otr Manager/Djz4                                              Y20200727        50 Central Avenue                                                   Kearny                        017NJ070324603USA+04072070-07411450                                                                                                                                            AMAZON PILOT - CURRENT STATION:DJZ4                                                                                                                                                                                                                                                                                                          .
23153013Attn: Otr Manager/Dba7                                              Y20200727        16604 Industrial Lane                                               Williamsport                  043MD217953127USA+03959990-07779310                                                                                                                                            AMAZON PILOT - CURRENT STATION: DBA7                                                                                                                                                                                                                                                                                                         .
23153014Attn: Otr Manager/Dba8                                              Y20200727        7021 Dorsey Rd.                                                     Hanover                       003MD210761553USA+03917100-07672650                                                                                                                                            AMAZON PILOT - CURRENT STATION: DBA8                                                                                                                                                                                                                                                                                                         .
23153015Attn: Otr Manager/Dnj6                                              Y20200727        118 Moonachie Avenue                                                Carlstadt                     003NJ070722507USA+04084020-07407090                                                                                                                                            AMAZON PILOT - CURRENT STATION:DNJ6                                                                                                                                                                                                                                                                                                          .
23153016Attn: Otr Manager/Ddp2                                              Y20200727        2400 S Weccacoe Ave.                                                Philadelphia                  101PA191484222USA+03991340-07514110                                                                                                                                            AMAZON PILOT - CURRENT STATION: DDP2                                                                                                                                                                                                                                                                                                         .
23153017Attn: Otr Manager/Dld7                                              Y20200727        10100 Willowdale Road                                               Lanham                        033MD207064344USA+03895520-07683220                                                                                                                                            ATTN: AMERIT FLEET / BEN LUKE                                                                                                                                                                                                                                                                                                                .
23153018Attn: Otr Manager/Dob2                                              Y20200727        425 S Cherry Street                                                 Wallingford                   009CT064924428USA+04144010-07283620                                                                                                                                            AMAZON PILOT - CURRENT STATION:DOB2                                                                                                                                                                                                                                                                                                          .
23153019Attn: Otr Manager/Dje2                                              Y20200727        1250 Forest Parkway                                                 West Deptford                 015NJ080661763USA+03982450-07521070                                                                                                                                            AMAZON PILOT - CURRENT STATION:DJE2                                                                                                                                                                                                                                                                                                          .
23153020Attn: Otr Manager/Djz3                                              Y20200727        377 Roosevelt Avenue                                                Carteret                      023NJ070083500USA+04057840-07421450                                                                                                                                            AMAZON PILOT - CURRENT STATION:DJZ3                                                                                                                                                                                                                                                                                                          .
23153021Attn: Otr Manager/Dat6                                              Y20200727        7055 Campbellton Road                                               Atlanta                       119GA303318105USA+03370770-08453700                                                                                                                                            AMAZON PILOT - CURRENT STATION: DAT6                                                                                                                                                                                                                                                                                                         .
23153022Attn: Otr Manager/Dfl4                                              Y20200727        4401 Seaboard Road                                                  Orlando                       095FL328083812USA+02858180-08143940                                                                                                                                            AMAZON PILOT - CURRENT STATION:DFL4                                                                                                                                                                                                                                                                                                          .
23153023Attn: Otr Manager/Dlx8                                              Y20200727        515 East Dyer Road                                                  Santa Ana                     059CA927073736USA+03370880-11786070                                                                                                                                            AMAZON PILOT - CURRENT STATION:DLX8                                                                                                                                                                                                                                                                                                          .
23153024Attn: Otr Manager/Dmo7                                              Y20200727        9775 Air Commerce Pky                                               Orlando                       095FL328277332USA+02842200-08134210                                                                                                                                            AMAZON PILOT - CURRENT STATION:DMO7                                                                                                                                                                                                                                                                                                          .
23153025Attn: Otr Manager/Dnj5                                              Y20200727        150 Milford Road                                                    East Windsor                  021NJ085206124USA+04025990-07450070                                                                                                                                            AMAZON PILOT - CURRENT STATION:DNJ5                                                                                                                                                                                                                                                                                                          .
23153026Attn: Otr Manager/Dbo9                                              Y20200727        30 Commerce Blvd                                                    Middleboro                    023MA023461030USA+04190560-07095730                                                                                                                                            AMAZON PILOT - CURRENT STATION:DBO9                                                                                                                                                                                                                                                                                                          .
23153027Attn: Otr Manager/Dfo1                                              Y20200727        22801 8th St                                                        Sonoma                        097CA95476    USA+00000000+00000000                                                                                                                                            AMAZON PILOT - CURRENT STATION:DFO1                                                                                                                                                                                                                                                                                                          .
23153028Attn: Otr Manager/Dph8                                              Y20200727        7575 Brewster Ave                                                   Philadelphia                  101PA191533206USA+03990370-07523140                                                                                                                                            AMAZON PILOT - CURRENT STATION:DPH8                                                                                                                                                                                                                                                                                                          .
23153029Attn: Otr Manager/Dps5                                              Y20200727        28820 Chase Place                                                   Valencia                      037CA913555422USA+00000000+00000000                                                                                                                                            AMAZON PILOT - CURRENT STATION:DPS5                                                                                                                                                                                                                                                                                                          .
23153030Attn: Otr Manager/Dsr4                                              Y20200727        9051 Union Park Way                                                 Elk Grove                     067CA956242784USA+03838370-12136740                                                                                                                                            AMAZON PILOT - CURRENT STATION:DSR4                                                                                                                                                                                                                                                                                                          .
23153031Manheim Auto Auction                                                Y20200727        201 N 83rd Avenue                                                   Tolleson                      013AZ853533304USA+03369280-08440810                                                                                                                                            PHX WAREHOUSE:&#xD;
JESSICA SCHMIDT&#xD;
PARTS COORDINATOR                                                                                                                                                                                                                                                                                   .
23153032Attn: Otr Manager/Dxc5                                              Y20200727        44109 Pacific Commons Boulevard                                     Fremont                       001CA945383807USA+03748830-12196210                                                                                                                                            AMAZON PILOT - CURRENT STATION:DXC5                                                                                                                                                                                                                                                                                                          .
23153033Attn: Otr Manager/Dyo1                                              Y20200727        500 Hudson Valley                                                   New Windsor                   071NY125534744USA+04148560-07410240                                                                                                                                            AMAZON PILOT - CURRENT STATION:DYO1                                                                                                                                                                                                                                                                                                          .
23153034Gsa Collision                                                       Y20200727        15590 Dupont Avenue                                                 Chino                         071CA917107606USA+02397120-11768500       9254442887                                                                                                                           AMAZON PARTS ORDERING FOR AMAZON DISTRIBUTOR, AMERIT FLEET SOLUTIONS                                                                                                                                                                                                                                                                         .
23153035Pivet Atlanta                                                       Y20200727        2244 Metropolitan Parkway SW                                        Atlanta                       121GA303156229USA+03369280-08440810                                                                                                                                            ATL:&#xD;
ELI SUMMERVILLE&#xD;
RECON ESTIMATOR II&#xD;
corrected state from NY t                                                                                                                                                                                                                                                             .
23153036Attn: Otr Manager/Dsf3                                              Y20200727        44308 Pacific Commons Boulevard                                     Fremont                       001CA945383815USA+03748830-12196210                                                                                                                                            AMAZON PILOT - CURRENT STATION:DXC5/ HAS 3 DIFFERENTSHIPPING LOCATIONS                                                                                                                                                                                                                                                                       .
23153037Attn: Otr Manager/Dsf3                                              Y20200727        44208 Pacific Commons Boulevard                                     Fremont                       001CA945383811USA+03748830-12196210                                                                                                                                            AMAZON PILOT - CURRENT STATION:DXC5/ HAS 3 DIFFERENTSHIPPING LOCATIONS                                                                                                                                                                                                                                                                       .
23153038Attn: Otr Manager/Dat9                                              Y20200806        5705 Highway 92                                                     Fairburn                      121GA302132589USA+03360150-08460630                                                                                                                                            AMAZON DSP LOCATION CENTER,DAT9                                                                                                                                                                                                                                                                                                              .
23153039Attn: Otr Manager/Dld1                                              Y20200806        7659 Solley Rd                                                      Glen Burnie                   003MD210608326USA+03917200-07655420                                                                                                                                            AMAZON DSP LOCATION CENTER, DLD1                                                                                                                                                                                                                                                                                                             .
23153040Attn: Otr Manager/Dsj7                                              Y20200806        615 North King Road                                                 San Jose                      085CA951331707USA+03736440-12186700                                                                                                                                            AMAZON DSP LOCATION CENTER, DSJ7                                                                                                                                                                                                                                                                                                             .
23153041Attn: Otr Manager/Dax5                                              Y20200806        15930 Valley Blvd                                                   City of Industry              037CA917443930USA+03401620-11795380                                                                                                                                            AMAZON DSP LOCATION CENTER, DAX5                                                                                                                                                                                                                                                                                                             .
23153042Attn: Otr Manager/Dmf1                                              Y20200806        5700 NW 37th Avenue                                                 Miami                         086FL331422722USA+02582670-08025720                                                                                                                                            AMAZON DSP LOCATION CENTER,DMF1                                                                                                                                                                                                                                                                                                              .
23153043Attn: Otr Manager/Dbc6                                              Y20200806        100 Industrial Park Rd                                              Hingham                       023MA020434313USA+04217630-07091760                                                                                                                                            AMAZON DSP LOCATION CENTER,DBC6                                                                                                                                                                                                                                                                                                              .
23153044Attn: Otr Manager/Dyr7                                              Y20200806        717 Broadway Avenue                                                 Holbrook                      103NY117414905USA+04077550-07306680                                                                                                                                            AMAZON DSP LOCATION CENTER,DYR7                                                                                                                                                                                                                                                                                                              .
23153045Attn: Otr Manager/Djz8                                              Y20201002        1 Paddock Street                                                    Avenel                        023NJ070011856USA+04058660-07426740                                                                                                                                            AMERIT - AMAZON DSP                                                                                                                                                                                                                                                                                                                          .
23153046Attn: Otr Manager/Dyn5                                              Y20201002        10 Patton Drive                                                     West Caldwell                 013NJ070066405USA+04086160-07428020                                                                                                                                            AMERIT - AMAZON DSP                                                                                                                                                                                                                                                                                                                          .
23153047Attn: Otr Manager/Dab8                                              Y20201002        100 Precision Dr                                                    Shirley                       103NY119674710USA+04084860-07287250                                                                                                                                            AMERIT - AMAZON DSP                                                                                                                                                                                                                                                                                                                          .
23153048Attn: Otr Manager/Dmd9                                              Y20201002        1000 Prince George's Blvd                                           Upper Marlboro                033MD207748705USA+03887460-07672620                                                                                                                                            AMERIT - AMAZON DSP                                                                                                                                                                                                                                                                                                                          .
23153049Attn: Otr Manager/Dtp7                                              Y20201002        1003 North Taylor Road                                              Seffner                       057FL335843501USA+02800520-08229010                                                                                                                                            AMERIT - AMAZON DSP                                                                                                                                                                                                                                                                                                                          .
23153050Macco Pritman Autobody                                              Y20201002        103 West Roosevelt                                                  Villa Park                    043IL601813551USA+04186040-08798080                                                                                                                                            MAACO AMAZON DSP                                                                                                                                                                                                                                                                                                                             .
23153051Maaco High Point                                                    Y20201002        108 Westover Dr                                                     High Point                    081NC272652869USA+03599510-08003360                                                                                                                                            MAACO AMAZON DSP                                                                                                                                                                                                                                                                                                                             .
23153052Carstar South San Francisco                                         Y20201002        1100 San Mateo Ave                                                  South San Francisco           081CA940806602USA+03763830-12241150                                                                                                                                            CARSTAR AMAZON DSP                                                                                                                                                                                                                                                                                                                           .
23153053Attn: Otr Manager/Ddx7                                              Y20201002        1101 South Gateway Blvd                                             Forney                        257TX751263763USA+03279750-09648100                                                                                                                                            AMERIT AMAZON DSP                                                                                                                                                                                                                                                                                                                            .
23153054Macco New Braunfels                                                 Y20201002        1197 Eikel St                                                       New Braunfels                 091TX781305527USA+02969620-09813710                                                                                                                                            MAACO AMAZON DSP                                                                                                                                                                                                                                                                                                                             .
23153055Attn: Otr Manager/Dlv2                                              Y20201002        1200 E Alexander Rd                                                 North Las Vegas               003NV890303201USA+03623230-11512610                                                                                                                                            AMERIT AMAZON DSP                                                                                                                                                                                                                                                                                                                            .
23153056Macco Burnsville                                                    Y20201002        12220 Riverwood Drive                                               Burnsville                    037MN553371511USA+04478530-09326090                                                                                                                                            MAACO - AMAZON DSP                                                                                                                                                                                                                                                                                                                           .
23153057Macco McClure Autobody                                              Y20201002        148 Osborne Rd. NE                                                  Fridley                       003MN554323120USA+04510560-09326880                                                                                                                                            MAACO - AMAZON DSP                                                                                                                                                                                                                                                                                                                           .
23153058Attn: Otr Manager/Dln2                                              Y20201002        1500 S Larame Ave                                                   Cicero                        031IL608041327USA+00000000+00000000                                                                                                                                            AMERIT AMAZON DSP                                                                                                                                                                                                                                                                                                                            .
23153059Carstar Factory Finish                                              Y20201002        1725 Wood Street                                                    Round Lake                    097IL600733903USA+04238020-08805800                                                                                                                                            CARSTAR - AMAZON DSP                                                                                                                                                                                                                                                                                                                         .
23153060Carstar St Petersburg                                               Y20201002        1819 11th Ave N.                                                    St Petersburg                 103FL337135723USA+02778290-08265780                                                                                                                                            CARSTAR - AMAZON DSP                                                                                                                                                                                                                                                                                                                         .
23153061Carstar Savannah                                                    Y20201002        2110 Louisville Rd                                                  Savannah                      051GA314151602USA+03208230-08112370                                                                                                                                            CARSTAR - AMAZON DSP                                                                                                                                                                                                                                                                                                                         .
23153062Attn: Otr Manager/Dfl3                                              Y20201002        2121 NW 67th Pl                                                     Gainesville                   001FL326531603USA+02971610-08235180                                                                                                                                            AMERIT AMAZON DSP                                                                                                                                                                                                                                                                                                                            .
23153063Attn: Otr Manager/Dwa6                                              Y20201002        22001 84th Avenue South                                             Kent                          033WA980321962USA+04740460-12222800                                                                                                                                            AMERIT - AMAZON DSP                                                                                                                                                                                                                                                                                                                          .
23153064Macco Timonium                                                      Y20201002        2204 Greenspring Dr                                                 Lutherville Timonium          005MD210933114USA+03944570-07663460                                                                                                                                            2200-2204 GREENSPRING DR                                                                                                                                                                                                                                                                                                                     .
23153065Attn: Otr Manager/Dje3                                              Y20201002        2320 Center Square Road                                             Logan Township                015NJ080851796USA+03977890-07538540                                                                                                                                            AMERIT - AMAZON DSP                                                                                                                                                                                                                                                                                                                          .
23153066Carstar Kent                                                        Y20201002        23608 30th Ave S.                                                   Kent                          033WA980322823USA+04738840-12229430                                                                                                                                            CARSTAR - AMAZON DSP                                                                                                                                                                                                                                                                                                                         .
23153067Macco Collision Repair 2 - 12849                                    Y20201002        2520 W. Northwest Highway                                           Dallas                        113TX752204532USA+03285800-09687950                                                                                                                                            MAACO - AMAZON DSP                                                                                                                                                                                                                                                                                                                           .
23153068Attn: Otr Manager/Ddo6                                              Y20201002        2751 Skypark Dr                                                     Torrance                      037CA905055351USA+03380430-11833500                                                                                                                                            AMERIT - AMAZON DSP                                                                                                                                                                                                                                                                                                                          .
23153069Attn: Otr Manager/Dmf3                                              Y20201002        2800 N Andrews Ave Ext                                              Pompano Beach                 011FL330642100USA+02626540-08013890                                                                                                                                            AMERIT - AMAZON DSP                                                                                                                                                                                                                                                                                                                          .
23153070Attn: Otr Manager/Dur1                                              Y20201002        995 N. Hollywood Way                                                Burbank                       037CA915052816USA+03416750-11834690                                                                                                                                            AMERIT - AMAZON DSP                                                                                                                                                                                                                                                                                                                          .
23153071Attn: Otr Manager/Dot4                                              Y20201002        3001 & 3175 Mission Oaks Blvd                                       Camarillo                     111CA930128710USA+00000000+00000000                                                                                                                                            AMERIT - AMAZON DSP                                                                                                                                                                                                                                                                                                                          .
23153072Attn: Otr Manager/Dhx1                                              Y20201002        3031 S. Sam Houston Parkway E                                       Houston                       201TX770476551USA+02959820-09537940                                                                                                                                            AMERIT - AMAZON DSP                                                                                                                                                                                                                                                                                                                          .
23153073Attn: Otr Manager/Dln8                                              Y20201002        315 South Hicks Rd                                                  Palatine                      031IL600676940USA+04210350-08803400                                                                                                                                            AMERIT - AMAZON DSP                                                                                                                                                                                                                                                                                                                          .
23153074Attn: Otr Manager/Dau7                                              Y20201002        150 Chisholm Trail Rd                                               Round Rock                    491TX786815045USA+03050160-09769110                                                                                                                                            AMERIT - AMAZON DSP                                                                                                                                                                                                                                                                                                                          .
23153075Maaco Sandeigo - 12374                                              Y20201002        3215 Production Ave                                                 Oceanside                     073CA920581309USA+03321560-11734800                                                                                                                                            MAACO - AMAZON DSP                                                                                                                                                                                                                                                                                                                           .
23153076Maaco-Detroit-12310                                                 Y20201002        32754 West Eight Mile Road                                          Farmington                    125MI483365106USA+04244070-08337040                                                                                                                                            MAACO - AMAZON DSP                                                                                                                                                                                                                                                                                                                           .
23153077Attn: Otr Manager/Dda9                                              Y20201002        3700 San Jacinto Dr                                                 Fort Worth                    439TX761165906USA+03272930-09749230                                                                                                                                            AMERIT - AMAZON DSP                                                                                                                                                                                                                                                                                                                          .
23153078Attn: Otr Manager/Zyo1                                              Y20201002        38-50 21st St                                                       Long Island City              031NY111013604USA+04075700-07393960                                                                                                                                            AMERIT - AMAZON DSP                                                                                                                                                                                                                                                                                                                          .
23153079Attn: Otr Manager/Dfa5                                              Y20201002        400-438 Littlefield Ave                                             South Sanfrancisco            081CA940806105USA+00000000+00000000                                                                                                                                            AMERIT - AMAZON DSP                                                                                                                                                                                                                                                                                                                          .
23153080Attn: Otr Manager/Dlt3                                              Y20201002        413 Goodman Rd                                                      Concord                       025NC280279521USA+03540760-08069800                                                                                                                                            AMERIT - AMAZON DSP                                                                                                                                                                                                                                                                                                                          .
23153081                                                                    Y20201002        4208 N. Illinois Street                                             Swansea                       163IL622261835USA+03856510-08998480                                                                                                                                            MAACO - AMAZON DSP                                                                                                                                                                                                                                                                                                                           .
23153082Attn: Otr Manager/Djz5                                              Y20201002        429 Delancy Street                                                  Newark                        013NJ071053849USA+04071940-07415650                                                                                                                                            AMERIT - AMAZON DSP                                                                                                                                                                                                                                                                                                                          .
23153083Macco Jenco Industries                                              Y20201002        4910 Oneida St                                                      Commerce City                 001CO800224706USA+03978640-10490820                                                                                                                                            MAACO - AMAZON DSP                                                                                                                                                                                                                                                                                                                           .
23153084Attn: Otr Manager/Djr6                                              Y20201002        5 Logistics Drive                                                   Kearny                        017NJ070326537USA+04073200-07411410                                                                                                                                            AMERIT - AMAZON DSP                                                                                                                                                                                                                                                                                                                          .
23153085Carstar Affordable Autoworks                                        Y20201002        5178 Richmond Rd                                                    Bedford Heights               035OH441461331USA+04141990-08149870                                                                                                                                            CARSTAR - AMAZON DSP                                                                                                                                                                                                                                                                                                                         .
23153086Macco Group of Baichans                                             Y20201002        53-24 98th Street                                                   Corona                        081NY113683021USA+04073970-07386310                                                                                                                                            MAACO - AMAZON DSP                                                                                                                                                                                                                                                                                                                           .
23153087Macco Troy                                                          Y20201002        550 West Maple                                                      Troy                          125MI480845463USA+04254820-08315440                                                                                                                                            MAACO - AMAZON DSP                                                                                                                                                                                                                                                                                                                           .
23153088Attn: Otr Manager/Ddc9                                              Y20201002        5533 Wellington Road                                                Gainesville                   153VA201551614USA+03879360-07759490                                                                                                                                            AMERIT - AMAZON DSP                                                                                                                                                                                                                                                                                                                          .
23153089Attn: Otr Manager/Dlx9                                              Y20201002        5750 Mesmer Avenue                                                  Culver City                   037CA902306317USA+03398380-11839890                                                                                                                                            AMERIT - AMAZON DSP                                                                                                                                                                                                                                                                                                                          .
23153090Attn: Otr Manager/Djz2                                              Y20201002        610 Washington Avenue                                               Carlstadt                     003NJ070722902USA+04082600-07405720                                                                                                                                            AMERIT - AMAZON DSP                                                                                                                                                                                                                                                                                                                          .
23153091Maaco Clad Autobody                                                 Y20201002        6160 Federal Blvd                                                   Denver                        031CO802212014USA+03980830-10502520                                                                                                                                            MAACO - AMAZON DSP                                                                                                                                                                                                                                                                                                                           .
23153092Maaco-Washington-12118                                              Y20201002        640 South Philadelphia Blvd                                         Aberdeen                      025MD210013625USA+03949930-07617120                                                                                                                                            MAACO - AMAZON DSP                                                                                                                                                                                                                                                                                                                           .
23153093Macco Lawrence                                                      Y20201002        660 S. Union St                                                     Lawrence                      009MA018433750USA+04268270-07115230                                                                                                                                            MAACO - AMAZON DSP                                                                                                                                                                                                                                                                                                                           .
23153094Maaco Fleet Collision LLC                                           Y20201002        6794 Brandt Street                                                  Romulus                       163MI481743508USA+04225560-08333890                                                                                                                                            MAACO - AMAZON DSP                                                                                                                                                                                                                                                                                                                           .
23153095Macco Doraville                                                     Y20201002        6850 Buford Highway                                                 Doraville                     089GA303401552USA+03392600-08424720                                                                                                                                            MAACO - AMAZON DSP                                                                                                                                                                                                                                                                                                                           .
